:020000040800F2
:100000000050002061C40008559A0008579A000863
:10001000599A00085B9A00085D9A000800000000E9
:100020000000000000000000000000005F9A0008CF
:10003000619A000800000000639A0008659A0008B1
:10004000A9C40008A9C40008A9C40008A9C40008DC
:10005000A9C40008A9C40008A9C40008A9C40008CC
:10006000A9C40008A9C40008A9C40008A9C40008BC
:10007000A9C40008A9C40008A9C400086D9A000812
:10008000A9C40008A9C40008A9C40008A9C400089C
:10009000A9C40008A9C40008A9C40008A9C400088C
:1000A000A9C40008A9C40008A9C40008A9C400087C
:1000B0007D9A0008A9C40008A9C40008A9C40008C2
:1000C000A9C40008A9C40008A9C40008A9C400085C
:1000D000A9C400088D9A0008A9C40008A9C4000892
:1000E000A9C40008A9C40008A9C4000800000000B1
:1000F0000000000000000000000000000000000000
:0C01000000000000000000005FF808F1A3
:100110000348044B834202D0034B03B11847704796
:10012000E0010020E0010020000000000548064931
:100130000B1AD90F01EBA301491002D0034B03B1F5
:1001400018477047E0010020E00100200000000097
:1001500010B5064C237843B9FFF7DAFF044B13B10F
:100160000448AFF300800123237010BDE00100209C
:1001700000000000ACC4000808B5044B1BB10449E2
:100180000448AFF30080BDE80840CFE7000000005E
:10019000E4010020ACC40008014B1868704700BFA0
:1001A0000000002070B50D4E0D4D761BB61006D028
:1001B000002455F8043B01349847A642F9D1094E72
:1001C000094D0CF073F9761BB61006D0002455F8D3
:1001D000043B01349847A642F9D170BD10CF000806
:1001E00010CF000814CF000810CF0008830730B5E7
:1001F00048D0541E002A3FD00346CAB201E0013C59
:100200003AD303F8012B9D07F9D1032C2DD9CDB298
:1002100045EA05250F2C45EA054536D9A4F110021B
:1002200022F00F0C03F1200EE6444FEA121C03F1FA
:10023000100242E9045542E9025510327245F8D1E4
:100240000CF1010214F00C0F03EB021204F00F0C7E
:1002500013D0ACF1040323F003030433134442F836
:10026000045B9342FBD10CF003042CB1CAB21C44D2
:1002700003F8012B9C42FBD130BD64461346002C91
:10028000F4D1F9E703461446BFE71A46A446E0E76F
:10029000002B2DE9F0479246B4BF2D22002288B0F2
:1002A000149EB8BF03F100491C46DDE91217B8BF20
:1002B0004C46662E109D0A7019D0462E17D026F097
:1002C0002003452B5246029735D00221009107A901
:1002D000049106A923460195039102F0FBFA672ECB
:1002E000814634D1119BDB0733D4079B1BE00321EC
:1002F000009107A9049106A923465246CDE901576A
:10030000039102F0E7FA814699F800304619302B44
:100310002CD03D683544504621460022002308F089
:100320007BFAC0B12B464846159AA3EB090313602C
:1003300008B0BDE8F0870221009107A904910135BA
:1003400006A923460195039102F0C4FA8146472E7F
:10035000C8D04D44DFE7079B9D42E4D930215A1CA9
:1003600007921970079BAB42F9D3DCE75046214650
:100370000022002308F050FA0028CAD1C5F1010577
:100380003D60C7E70029B4BF2D232B2370B5B8BF4C
:100390004942092982B0027000F1020E437030DD3B
:1003A0000DF1070423461D4E0D469C4686FB012396
:1003B000CA17C2EBA30202EB8203A1EB430101F1D6
:1003C0003003632D0CF8013C11460CF1FF33EBDCDC
:1003D0003031ACF10202C9B2944203F8011C1BD9BE
:1003E000724601E013F8011BA34202F8011BF9D188
:1003F0000DF10903A3EB0C0CF444ACEB000002B0CC
:1004000070BD3023F44619440CF8023B8EF80110FD
:10041000ACEB000002B070BDF446F9E767666666B3
:100420002DE9F04F91B00C46DDF868B016461F4636
:10043000054603F0F9FD036818460A9301F038F801
:1004400000230E9323680B900993DBF8003094F897
:100450001890073323F00703D3F804A0D3F80080E3
:10046000514640460833CBF800302AF0004BC4E92F
:1004700012014FF0FF325946994B08F0FFF948B985
:10048000404659464FF0FF32954B08F0D9F9002805
:1004900000F09E80424640465346514608F0EEF931
:1004A000002840F0418263685A1C31D0B9F1670FCF
:1004B00070D0B9F1470F6DD00999009341F4806174
:1004C00021600191002106910EA905910DA90391CA
:1004D0000DF133014246029153462846CDF8109063
:1004E000FFF7D6FEB9F1650F80460D9939D84A4617
:1004F000013904F150000D91FFF744FF0E9A824636
:100500001318012A236140F389810133236139E003
:10051000062363600999009341F480612160019191
:10052000002106910EA905910DA903910DF133014A
:10053000424653462846CDF810900291FFF7A8FE98
:1005400009F0DF03472B804640F007810D99C81C56
:1005500080F2FC80A9F102095FFA89F9B9F1650F0F
:10056000C5D9B9F1660F00F0FA800E9B8B4200F3FB
:10057000018123682161DB0701D54B1C23614FF00A
:10058000000AA1659DF83330002B3AD02D2384F862
:10059000433036E0002B00F025810999009341F4A7
:1005A000806121600191002106910EA905910DA99C
:1005B00003910DF133014246029153462846CDF88E
:1005C0001090FFF765FE0D998046C81CC2DBBDE0A8
:1005D000404651460022002308F028F910B12D238F
:1005E00084F84330099B3F4823F00403236003232E
:1005F00023613D4B4FF0000AB9F1470F94BF984675
:10060000804633462146284600970FAA00F0B2F9EB
:10061000013025D0236858052DD44246314628465E
:100620002369B84701301BD0236813F0020FE0683C
:100630000F9B1AD0C21A002A17DD4FF0000804F1F0
:10064000190904E0E0680F9BC21A42450DDD012341
:100650004A4631462846B847013008F10108F1D131
:100660004FF0FF3011B0BDE8F08F9842B8BF184688
:1006700011B0BDE8F08FB9F1650F39D9D4E9120195
:100680000022002308F0C8F800287BD0012331465F
:100690002846164AB8470130E2D0DDE90D239A42D8
:1006A00002DB2368D907C0D5DDE90A233146284695
:1006B000B8470130D4D00E9B012BB5DD4FF00008B8
:1006C00004F11A0903E00E9B013B4345ACDD012315
:1006D0004A46314628469844B8470130F3D1BFE72F
:1006E000FFFFEF7F5CCD000858CD000868CD000803
:1006F0000E9A012A79DD0123424631462846B84741
:100700000130ADD0DDE90A2331462846B847013033
:10071000A6D0D4E912010022002308F07DF80028B9
:1007200077D00E9B012B6ADD4FF0000804F11A0907
:1007300003E00E9B013B434561DD01234A46314600
:1007400028469844B8470130F3D189E76368994255
:100750003FF700AF4FF0670907E70D99FEE6002964
:1007600061DD63682161002B00F08E8001330B4452
:10077000236104E70029CCBF0122C1F10202134426
:100780002361FCE60D9B002B55DD0E9BD4F858A091
:100790005345A8BF5346002B9B4608DD42463146D1
:1007A0002846B84701303FF45BAFD4F858A02BEA95
:1007B000EB731A46AAEB0303002B72DD4FF000091E
:1007C000924604F11A0B04E0A36DA3EB0A024A451A
:1007D00066DD01235A46314628469944B847013020
:1007E000F2D13DE70123636094E6DB0783D4424600
:1007F000012331462846B84701303FF431AF534614
:100800003146284604F15002B84701307FF40CAF5E
:1008100026E70E9B08F10102013BEAE72268D207B6
:100820007FF5B0AE71E66368002B32D12268D20743
:100830002FD40123A4E70123314628464A4AB8476A
:1008400001303FF40DAFDDE90D23134323D0DDE983
:100850000A2331462846B84701303FF401AF0D9BCB
:10086000002B77DA4FF0000904F11A0A03E00D9B20
:100870005B424B456EDD0123524631462846994482
:10088000B8470130F3D1EBE62268D0077FF577AEA9
:100890006CE7023374E72368DA077FF5C6AED6E764
:1008A0009A46DDE90D218A4202DB2368D80709D583
:1008B000DDE90A2331462846B84701303FF4D0AE7F
:1008C000DDE90D21A1EB0A098A1A9145A8BF9146DD
:1008D000B9F1000F0BDD4B463146284608EB0A0202
:1008E000B84701303FF4BCAEDDE90D32D21A29EA37
:1008F000E979A2EB0903002B7FF796AE4FF00008D1
:1009000004F11A0A07E0DDE90D239B1AA3EB0903A2
:1009100043457FF789AE0123524631462846984425
:10092000B8470130EFD19BE6BAF1000FBCBF2D23D1
:1009300084F84330099B0D4A23F00403236003230A
:1009400023610B4B4FF0000AB9F1470F94BF90465B
:10095000984656E64246314628460E9BB847013037
:100960007FF462AE7CE600BF68CD000860CD000871
:1009700064CD00082DE9F04791461E460A698B6850
:100980000C469A42B8BF1A46C9F8002091F8433085
:100990000546DDF8208013B10132C9F80020226835
:1009A00091065DD5D9F800300233C9F800302268CD
:1009B00012F0060F11461ED1E168CB1A002BD8BFEA
:1009C000114618DD002704F1190A06E0D9F80030B5
:1009D000E268A2EB030CBC450CDD01235246314614
:1009E0002846C047013007F10107EFD14FF0FF3033
:1009F000BDE8F087216894F84330003B18BF01231D
:100A00008A060AD53021E21882F8431094F845107E
:100A10005A1C2244023382F843103146284604F11E
:100A20004302C0470130E1D0236803F00603042BE2
:100A30001DD0A3682269934225DD00279B1A1F441D
:100A400004F11A09002401E0BC421CDA01234A46E1
:100A500031462846C047013004F10104F4D1C5E70E
:100A600012F0060F12D0003B18BF0123D5E7D9F8CA
:100A70000030E1682269C91AA36821EAE17793424C
:100A8000DCDC0029DCDC0020BDE8F087E168D9F877
:100A90000030CB1A002BD8BF114693DCABE700BF68
:100AA0002DE9F04317460A7E85B00C460646984667
:100AB0000C9D01F1430C002A33D0A2F15803D9B2A6
:100AC000202967D8202B65D8DFE813F0DD0064000B
:100AD00064006400640064006400640064006400F6
:100AE0006400A3006E0064006400640064006E0093
:100AF000640064006400640021007F00BF006400A3
:100B00006400AE0064007F0064006400E4002368B9
:100B10001A0640F102812B686269191D29601B6861
:100B20001A600023E14623613B4621463046CDF85A
:100B3000008003AAFFF71EFF013020D04A46394645
:100B400030462369C047013019D02368E0689B070D
:100B5000039919D5431A002B16DD002504F1190954
:100B600004E0E0680399431AAB420DDD01234A46D5
:100B700039463046C047013005F10105F1D14FF04B
:100B8000FF3005B0BDE8F0838842B8BF084605B025
:100B9000BDE8F083012384F8422004F14209236177
:100BA000002384F84330BFE72368190602D45A06AD
:100BB00000F1BF8029680A68043129601146002AC3
:100BC0006ADB0A25DFF87CE110E02368180640F1B3
:100BD0009A802B68191D296019686F2A0CBF082597
:100BE0000A25DFF860E1002384F843306268002AB8
:100BF000A2607DDB236823F004032360002959D120
:100C0000002A77D1E146082D63D0ACEB09032361BC
:100C10008AE701222B6804F14209196804332B602A
:100C200084F842102261BBE72B6800211A1D2A605C
:100C3000D3F800906268484603F044FA00287FD059
:100C4000A0EB090060602061AAE7236843F020035D
:100C500023607822DFF8F0E084F845202A68111D2F
:100C60002960190642D45D0640D51188D80744BFD3
:100C700043F020032360002943D12368102523F08B
:100C800020032360AFE75823DFF8B8E084F845304D
:100C90002368E3E72368DCE72D2284F843206268B9
:100CA0004942002AA26002DB23F0040323600A25E4
:100CB000DFF890E0E146B1FBF5F30A4605FB1310BF
:100CC00019461EF80030AA4209F8013DF3D2082D5A
:100CD0009BD12368D90798D5626823699A4294DC2E
:100CE000302309F1FF3989F800308EE71168BDE73C
:100CF0000029DFD19EF8003004F1420984F8423027
:100D000081E710256FE713F0400F2B6803F1040112
:100D100029600CBF196819885FE713F0400F2B6832
:100D2000626903F1040129601B6814BF1A801A600C
:100D3000F7E62A68B2F9001004322A600A463EE754
:100D4000606880E76CCD000880CD00082DE9F04F89
:100D500087B005938B6890465A1EB2F5AE7F0C465D
:100D6000064640F2A7816FF4AE710B442746039309
:100D700040F25D132168A36041F4F06147F81C1B49
:100D80004FF0000B3D46DA46D946CDF810B0CDF80D
:100D900008B0CDF804B0D8F800201078A0F12B02EC
:100DA0004E2A72D8DFE812F03D0171003D016F015B
:100DB00071004F0053005300530053005300530081
:100DC00053005300530071007100710071007100F5
:100DD0007100710068017100710071004C014501E2
:100DE00071007100F50071007100710071002A013D
:100DF00071007100710071007100230171007100B8
:100E0000710071001C0171007100710071007100AE
:100E10007100710068017100710071004C014501A1
:100E200071007100F50071007100710071002A01FC
:100E30007100710071007100710023017100710077
:100E4000710071001C012168CA0500F14D811AEB87
:100E50000B0F1AD1236823F4C073236005F8010B2C
:100E6000A368013B2269A36001322261D8F8042003
:100E7000013A002AC8F8042040F30F81D8F8002076
:100E80000132C8F80020002B85D1B9F1000F40F0E5
:100E900088800AF1FF3ABAF1010F40F28C800BF121
:100EA000FF33062B1AD8BBF1020F40F26381BBF16E
:100EB000030F13D0ABF1040A5FFA8AFA6FEA0A0A49
:100EC000AA44D4F87C3115F8011D424630469847B3
:100ED0002369AA4503F1FF332361F2D12168C805D4
:100EE0000B461FD5490500F15681236915F8011CF1
:100EF000013B6529236105F1FF330CD045290AD058
:100F0000D4F87C31424630469847236915F8021CD4
:100F1000013B2361AB1E1D464246D4F87C3130466E
:100F20009847236813F0100840F0EB8085F80080A4
:100F3000236803F4C063B3F5806F00F00281029B65
:100F4000002B40F0398139463046002201F07CFA0E
:100F5000236806469A070F4600F104815B0700F1FB
:100F60000181059D2B681A1D2A601D6802460B46EB
:100F700007F084FC002840F02F813046394607F006
:100F8000DBFC28604046E3680133E36007B0BDE85E
:100F9000F08FBBF1000F40F09680B9F1000F00F028
:100FA000C38021680AF1FF3A21F48071BAF1010F80
:100FB00021603FF674AFAF420CD2D4F87C3115F803
:100FC000011D4246304698472369BD4203F1FF3375
:100FD0002361F2D14FF00108404607B0BDE8F08F21
:100FE000BBF1070F7FF451AF4FF0080B36E7BBF1B1
:100FF000060F7FF44AAF4FF0070B2FE7BAF1000F4F
:101000006CD1B9F1000F00F08280BBF1010F03D069
:10101000BBF1040F7FF439AF0BF1010B5FFA8BFBCF
:101020001CE721680A067FF530AF21F080012160BE
:1010300014E7BBF1020F7FF428AF4FF0030B0DE76D
:10104000216801F4A063B3F5806F06D04A057FF5EF
:101050001CAFB9F1000F3FF41CAF8B0504D4019B0A
:101060000495A9EB0303029321F4F06141F4C071EC
:101070004FF000092160F1E6BAF1010F7FF405AFEE
:101080004FF0020AEAE621688B057FF5FEAE21F4F7
:1010900020712160CDF80490E0E641463046D4F856
:1010A0008031984700287FF4F0AEA368002B7FF4CE
:1010B00072AEEAE60F4600220968039241F4F0613D
:1010C00047F81C1B5CE6BBF1030FA5D0BBF1050F75
:1010D000A2D0B9F1000F3FF4DCAE62E7BAF1020F23
:1010E00093D14FF0030AB9E6039A21F08001216001
:1010F00009F10109002A3FF4B3AE039A013A0392C1
:10110000B0E64FF00008404607B0BDE8F08F216818
:1011100001F4E063B3F5E06F7FF477AF21F4F061A1
:101120004FF0010A216099E6216801F4E063B3F50C
:10113000E06F4BD00AF1FF3ABAF1010F3FF6CFAEA4
:1011400039E7019B4B45A3EB09023FF4FCAE04F2E7
:101150006F139D4228BF04F5B7752846214900F05A
:10116000E7F8F0E605990B681A1D0A601B68C3E9E9
:10117000006707E7AF42BFF42DAFD4F87C3115F814
:10118000011D4246304698472369BD4203F1FF33B3
:101190002361F2D11EE7BD427FF61CAFD4F87C314B
:1011A00015F8011D4246304698472369AF4203F1C6
:1011B000FF332361F2D10DE7049D0A2342463046F6
:1011C000691C01F091FA029BC21AC0E721F4F06198
:1011D0004FF0010B216041E6034800F007F828605A
:1011E000D0E600BF94CD0008CCCC00080048704782
:1011F0000000C07F08B410B5002A04469DB031DB62
:101200004FF402734FF6FF7CADF814300291069153
:1012100020AB15D0013A0492079202A91F9A0193BC
:10122000ADF816C003F01AFF421C01DA8B232360CD
:101230000022029B1A701DB0BDE8104001B070473B
:101240000492079202A91F9A0193ADF816C003F009
:1012500005FF431C01DA8B2323601DB0BDE810405D
:1012600001B070478B234FF0FF302360F5E700BFDC
:101270000CB410B51E4B00291C689CB033DB4FF436
:1012800002734FF6FF7CADF81430029006901FAB4E
:1012900016D001391E9A04910791204602A90193A4
:1012A000ADF816C003F0DAFE421C01DA8B2323608E
:1012B0000022029B1A701CB0BDE8104002B07047BB
:1012C0000491079120461E9A02A90193ADF816C019
:1012D00003F0C4FE431C01DA8B2323601CB0BDE87D
:1012E000104002B070478B234FF0FF302360F5E7CA
:1012F000000000200CB430B50C466FF000459DB0E6
:101300000A4A20AB059253F8042B02A9CDE9013417
:1013100007950495069403F0A1FE0022029B1A7023
:101320001DB0BDE8304002B0704700BF0802FFFFAB
:101330000EB430B504466FF000459CB00B4A1FABAD
:101340000B49059253F8042B086802A9CDE9013432
:1013500007950495069403F081FE0022029B1A7003
:101360001CB0BDE8304003B0704700BF0802FFFF6B
:10137000000000200EB44FF40172F0B59CB021AD16
:1013800055F8047BADF814200290069000F090F818
:10139000002604464FF6FF7C0A4B0B490B933A4656
:1013A0002B46086802A901950F961496ADF816C051
:1013B0000394079403F0CAFF1CB0BDE8F04003B0EB
:1013C000704700BF45140008000000200CB44FF423
:1013D0000173F0B59DB022AD0646084655F8047B72
:1013E000ADF814300291069100F062F80021044635
:1013F0002B4601954FF6FF750F91149107493A4618
:101400000B91304602A9ADF816500394079403F0EF
:101410009DFF1DB0BDE8F04002B0704745140008C4
:1014200010B50C46B1F90E1004F0A8FA002803DB41
:10143000636D0344636510BDA38923F48053A381C6
:1014400010BD00BF002070472DE9F0410C46B1F9F6
:101450000C101F46CB05054616460BD421F48051CF
:10146000A1813B4632462846B4F90E10BDE8F04152
:1014700001F072B9B4F90E100223002202F0DCFD73
:10148000B4F90C10EAE700BF10B50C46B1F90E1024
:1014900002F0D2FDA389421C0EBF23F4805343F413
:1014A00080536065A38110BDB1F90E1001F06AB9D7
:1014B00020F0030110F00300C0F1000051F8043BDC
:1014C00000F1040C4FEACC0C6FF000021CBF22FAB2
:1014D0000CF213434FF0010C4CEA0C2C4CEA0C4C70
:1014E000A3EB0C0222EA030212EACC1204BF51F869
:1014F000043B0430F4D0C2F1000102EA0102B2FA66
:1015000082F2C2F11F0200EBD2007047000000001F
:101510002DE9F04F002582469748A1B00068884623
:1015200007921C4608901C95FFF7C2FF00218346D6
:1015300000204246CDE90401CDF86C80174612F830
:10154000013B2D2B2FD8DFE813F0A0002E002E003A
:101550002E002E002E002E002E002E00AD00AD001D
:10156000AD00AD00AD002E002E002E002E002E008E
:101570002E002E002E002E002E002E002E002E00FB
:101580002E002E002E002E002E00AD002E002E006C
:101590002E002E002E002E002E002E002E002E00DB
:1015A00002042E00F80300220992302B7CD0002286
:1015B0000B922F2B1C4640F229854FF0000938462C
:1015C0004E464D4612E00130082D1B90C8BF09EB76
:1015D00089090478C6BF03EB4903A3F13009A2F1DE
:1015E00030062F2C234605F101056EDD06EB860241
:1015F000392C03EB4202E6DD5A46089904F032FA30
:10160000002835D11B9B1A465B441B9312F80B40F4
:10161000002D40F0A885302C40F06085C3F1010218
:10162000981801331B931C78302CF9D0A4F13103A6
:10163000082B00F23583A4F1300E1B9C00230125FA
:10164000274600F1010B0A93002006EB86060EEBFD
:101650004606631C1B936478A4F13001092900F24B
:10166000E9828E460130002940F0AF841B9CF0E7F0
:101670000020652C834684460A9501D0452C30D144
:10168000002D7ED10B9B03437AD14FF0000B079BBB
:10169000D94613B1079BC3F800805846494621B08C
:1016A000BDE8F08F1B9249E77B7803F0DF03582BEE
:1016B00000F06D8401371B973B78302BFAD0002B5C
:1016C00000F0CE8001220B9273E75A46089904F08D
:1016D000C9F9002800F0D7800A954FF0000B584652
:1016E000DC4600230C93002D00F096800A9A3046C9
:1016F0001346002A08BF2B460A9306F0ABFD0246AC
:101700000B46DDF830C0102D2C46ACEB0B0CA8BFFF
:101710001024092DCDE90423CDF82CC014DD174B7E
:1017200003EBC40353E9122306F00EFE02464846BB
:101730009046894606F08EFD02460B4640464946D5
:1017400006F04CFCCDE904010F2D00F3A5800B9BA6
:10175000002B00F00F840B9B40F38A83162B40F381
:10176000F4840B9AC5F12503934280F207850B9B05
:101770002C1B1C4496E000BF24C7000840C700088B
:101780000025DDF86C8008F101031B9398F80140F7
:101790002B2C00F082822D2C00F01B824FF0000ECB
:1017A000A4F13003092B00F20F82302C05D11B9BD2
:1017B00001331B931C78302CFAD0A4F13103082B91
:1017C0008FD81B9AA4F13001531C1B9354780892B4
:1017D0002F2C09DC00F029BC1C4601331B936478D4
:1017E000A2F130012F2C05DD01EB8102392C04EB35
:1017F0004202F1DD089A9B1A082B40F3168444F646
:101800001F630C93BEF1000F3FF46DAF0C9B5B4266
:101810000C93002D7FF46AAF0B9B034320D1BCF1E6
:10182000000F7FF432AF692C00F01B8400F3398382
:10183000492C00F016844E2C7FF427AFAA491BA830
:1018400002F000FB00283FF420AF1B9B1B78282BE5
:1018500000F07385A54804F0A7F88346894602E0A6
:101860004FF0000BD946079A0AB11B9B1360099BE6
:10187000002B3FF412AF09F1004399465846494600
:1018800021B0BDE8F08F1B9B0A9503EB0B021B9266
:1018900013F80B408346DFE60B9B2C1B1C44002CEB
:1018A00040F3048314F00F000AD0DDE904239049CB
:1018B00001EBC001D1E9000106F046FDCDE90401CC
:1018C00034F00F0340F08682002308932B463946FC
:1018D00050460A9A009602F065FD1390002800F029
:1018E0004E830C9BABEB03010B9B002BB4BF0A4652
:1018F00000220E9200229346904623EAE37312934D
:10190000139C5046616802F09BFC0746002800F0DB
:101910004081226904F10C01023292000C3002F085
:1019200019FCDDE904010C4611911EA901911DA9C4
:1019300002460A9023465046009103F0D1F81C90CD
:10194000002800F016810121504602F0D1FD8046AA
:10195000002800F01E811D9B002BC0F20D810E9A05
:10196000129D9E18089A1E9C9B1A2344614A013BB3
:101970009342C4F1360480F2AE80D21A1F2A4FF08F
:101980000109A4EB020400F31981002309FA02F90A
:101990000C93089B25443444A6421D443346A8BFFB
:1019A0002346AB42A8BF2B46002B02DDE41AED1AFA
:1019B000F61A0E9B002B00F3BC80002C00F3D080A5
:1019C0000B9B002B00F3DC80002D00F3ED80002E3C
:1019D00008DD41463246504602F0BEFE80460028F1
:1019E00000F0D7803A4650461C9902F049FF8346E2
:1019F000002800F0CE800026C3684146C6600F93E1
:101A000002F01EFFB042C0F2678400F0CE83414670
:101A1000584603F0C7F800224FF0804304460D46B5
:101A200006F00EFF00286DD00F9B002B00F0DD802C
:101A300000223546059B304C10932F4BCDE90C23EB
:101A40002E4E109A2E4B02EA0609994500F0F880B6
:101A5000089B93B1B9F1D46F0FD821A3D3E9002328
:101A60002846214606F0ECFE002840F084810D9BBC
:101A700003F1D663A3EB09030D93119E0A98314637
:101A8000DDE90C23CDE9042302F0A0FF02460B465A
:101A9000DDE9040106F058FC33460A9A06F09EFA86
:101AA0000E46CDE90401089B23B9144B33409945F8
:101AB00000F0FF8050461C9902F002FC3946504667
:101AC00002F0FEFB4146504602F0FAFB59465046F2
:101AD00002F0F6FB14E700234FF001090C9358E7DE
:101AE0000000C0FFFFFFDF41A8CD0008CCCC0008FC
:101AF00040C7000802FCFFFF0000F03F0000F07F3D
:101B00000000E07F204629460022AB4B06F01CFC7B
:101B10000F9B024605460C46002B62D101F10043A3
:101B200014901593059B1093DDE91423CDE90C2344
:101B300086E741461A46504602F09EFD804640B375
:101B400001461C9A504602F0E9FC10B30F901C9914
:101B5000504602F0B5FB0F9B002C1C937FF730AF73
:101B6000224650461C9902F0F7FD1C9000287FF495
:101B700027AF5E460B970FE0129A0E9ED51AF1E63C
:101B800039465046129A02F077FD074600287FF446
:101B90001BAF5E460B971C9822234FF0000BDFF81B
:101BA0001C92CAF80030B3E039462A46504602F08B
:101BB000D3FD074600287FF40AAFEAE7804AD31A2C
:101BC00009FA03F30C93E4E60023CDF86C800C9340
:101BD00089E54FF0010E08F102031B9398F80240CB
:101BE000DEE50B46CDE914239CE7DDE9041200296C
:101BF00040F0B080C2F313031092002B40F0B0808D
:101C00000022204629466F4B06F010FE002840F0C7
:101C1000AE8220462946684B002206F095FB054619
:101C20000C4601F1004318901993DDE91823CDE922
:101C30000C2305E7652C4FF0010C3FF4A2AD1DE528
:101C4000A2F154730593DDE90423DDE90C01CDE92C
:101C5000040110461946CDE90C2302F0B7FE0246F6
:101C60000B46DDE9040106F06FFBDDE90C2306F00D
:101C7000B5F9554A0B46CDE904013140914276D978
:101C8000119A524B9A4202D10A9B013381D04FF0F4
:101C9000FF334E4ACDE904320CE74FF0000E9AE7CD
:101CA000652C00F0F780452C00F0F4804FF0010C1B
:101CB000B2E52846214607F09FF906F017FB0B46D0
:101CC00002462146284606F087F90F9C049DC6F37C
:101CD000130644EA050C5CEA060304460D4600F0D0
:101CE000BE8031A3D3E9002306F0A0FD48B930A39C
:101CF000D3E900232046294606F0B6FD00283FF42C
:101D0000D9AEDDE904345E46A1469B461C980B978C
:101D10000146504602F0D4FA50460B9902F0D0FA30
:101D20004146504602F0CCFA5046139902F0C8FAE8
:101D30003146504602F0C4FA95E5012309937A1C16
:101D40001B927B78002B3FF4A0AC17462DE40023B8
:101D50000993F4E7DDE90412012900F06E81109285
:101D600000221B4B0025CDE90C23164C68E603F13D
:101D70005476059697E62146284606F0BDFD0128D3
:101D800038BF012006F066FA0F9B024605460C4656
:101D9000002B40F0628101F1004316901793DDE9BA
:101DA0001623CDE90C2362E69535A094FFFFDF3FB3
:101DB00035E5AF350000E03F0000E03F0000F07F78
:101DC000E2FBFFFF0000F03FFFFF9F7CFFFFEF7F84
:101DD0000000F0BFB3F59A7F00F3D180102B4FEADB
:101DE000231440F3C082DDE904010023AC4A994684
:101DF0009046089214F0010F09F101094FEA6404BA
:101E000004D0D8E9002306F09FFA0123012C08F141
:101E10000808EFD10BB1CDE90401089B03EBC90918
:101E2000059BD9E90001A3F154730593DDE904236F
:101E300006F08AFA9B4B9C4A0B409342CDE9040181
:101E400000F29D80A2F58012934240F222824FF070
:101E5000FF339649CDE904310023089336E58EA37C
:101E6000D3E9002306F0E2FC00283FF423AE48E764
:101E70001633FFF611ADDDE904010C9BABEB030A51
:101E80008B4B03EBCA03D3E9002306F087FB8346A1
:101E90008946E8E400234FF0010C9B460A93FFF7C4
:101EA000F1BB6E2C3FF4CAACFFF7EFBB3FF40CADB7
:101EB000644214F00F020AD0DDE904017C4B03EB0D
:101EC000C203D3E9002306F069FBCDE90401241124
:101ED0003FF4FAAC1F2C35DCDDE9040114F01003EB
:101EE00018BF6A2308930023DFF8C881E20704D5EE
:101EF000D8E9002306F028FA0123641008F1080845
:101F0000F4D10BB1CDE90401089B93B1DDE90401E3
:101F1000C1F30A52C2F16B03002B0ADD1F2B40F301
:101F20004C820020342B049040F352824FF05C73BB
:101F300005930022DDE90401002306F06DFC002872
:101F40003FF4C4AC22234FF0000BCAF80030D9464E
:101F500089E41E9B04931D9B03F233421F9B23F4D1
:101F6000801343EA02530593200742BF059B43F0C9
:101F700000430593DDE904349B46A14673E4222324
:101F80004FF0000BDFF81C91CAF800306BE4099B9E
:101F9000029401931CAB00935046474A1DAB1BA90A
:101FA00001F06EFC10F0070504463FF459AC062D15
:101FB00040F097804FF0000B079BD9460137002B6C
:101FC0003FF46BAB1F60FFF768BB6B1C01281A4620
:101FD0001B9C834415D0284400F1FF3C03E04600DD
:101FE0009C450DD001332A46082A1D4606EB860083
:101FF000F5D9102BDCBF09EB89094FEA4909EFE756
:102000000232082D5EDC1546FFF71EBB5A463846E5
:10201000089903F027FD002800F08D8000231D465D
:1020200099461E460A93FFF758BB44F61F63994230
:10203000A8BF19460C91FFF7E5BBDDE90434109405
:10204000002C7FF48DAE5E460B9722234FF0000BE1
:102050001C98D946CAF800305AE60B46CDE916233B
:102060009DE616491BA801F0EDFE00283FF40DABDC
:102070001B9B1349013B1BA81B9301F0E3FE10B906
:102080001B9B01331B934FF0000BDFF81890FFF7F9
:10209000EABB00BFAFF300809535A094FFFFCF3FB0
:1020A00030C800080000F07F0000A07CFFFFEF7F39
:1020B00040C70008F8C40008D0C400089CCD000840
:1020C000A0CD0008102AD8BF09EB890915464FF0AA
:1020D0000000D8BF01EB4909FFF7BBBA0020FFF7AA
:1020E000A5BA1C9A3AB135211EA802F0A7FD5046A8
:1020F0001C9902F0E5F8013D042D3FF635AF01A330
:1021000053F825F0531F00082D210008272100084F
:1021100019210008531F00084FF0FF336FF00045EE
:10212000CDE9043520E7AF4B05931DE71E9B0493D3
:102130001F9B059318E71B9B06461A465B441B939F
:10214000814612F80B40FFF766BA0B98A649DDE905
:10215000042301EBC001D1E9000106F0F5F8834644
:102160008946FFF780BB83460A95FFF775BA0022C0
:102170009E4B0F9DCDE918239D4C56E59A4CC5F119
:102180000F0504EBC501DDE90423D1E9000106F0E8
:10219000DBF80B9B5D1B04EBC504D4E9002306F0C0
:1021A000D3F883468946FFF75EBB0F9B5E46CC465D
:1021B0000B97DDF828B00C9FDDF84490002B6FD012
:1021C000DDE904458B4BC5F3130199422A463CD007
:1021D000002F00F0AB80DDE904231F421C4621D014
:1021E0000F9B58464946002B00F0C28002F0EEFBE0
:1021F000089D02460B467DB1C4F30A54C4F16B043A
:10220000002C09DD240504F17F53002203F540135F
:1022100006F09AF802460B465846494605F0DEFE9F
:1022200083468946089B73B158464946724B002243
:1022300006F08AF803460B4308BF222383468946EB
:1022400008BFCAF800301C9862E5089B0499002B6F
:1022500000F0BB80634B2B40B3F1D46F00F2B5802C
:102260004FF0FF301B0DC3F16B0300FA03F39942EB
:10227000AED1624B9A4200F0E0805A4B134003F516
:102280008013059300230493DDE904349B46A146A3
:10229000C8E701F15473059300230893FFF716BBB9
:1022A000DDE90412C2F313030B43144690D1089BDB
:1022B000002B40F0B7804B4B2340A3F580136FEA0F
:1022C00013536FEA035305934FF0FF330493DDE993
:1022D00004349B46A146A5E70F9BDDE904120B439E
:1022E00058465E46DDF84490DDF828B00B9799D14A
:1022F000C2F313031446002B94D122F000431B0DAC
:102300001B05B3F1D66F8DD9436913B90369012B4E
:1023100088DD31460122504602F01EFA414606464B
:1023200002F08EFA00287FF77DAFC0E7DDE90434C4
:102330001CEA030F3FF476AF52E731491BA81EAAEF
:1023400001F09AFD05287FF485AA1F9B43F0FF4307
:1023500043F4E00305931E9B0493DDE904349B469C
:10236000A146FFF780BA274B4FF00009089354E5C8
:1023700002F02CFB089D02460B46002D44D0C4F30E
:102380000A54C4F16B04002C09DD240504F17F53C9
:102390000F9A03F5401305F0D7FF02460B46584647
:1023A000494605F019FE002200238346894606F0BF
:1023B00033FA00283FF438AF47E64FF0FF3202FA15
:1023C00003F3049A1A400492B3E54FF0FF334EE74B
:1023D0004FF0FF33C2F14B0203FA02F202EA0103AB
:1023E0000593A6E50000F07F40C700080000E0BFAD
:1023F0000000E03FFFFF0F0000005039FFFFEF7FBC
:10240000E4C4000830C800085846494605F0E4FD19
:10241000002200238346894606F0FEF900283FF497
:1024200012AF12E6074B2340B3F1D66F3FF745AF2B
:10243000B3F15C7F3FF7F8AE07E601317FF41DAFE3
:10244000FFF7A9BB0000F07F014BFFF761B800BFA9
:10245000680000208C4600B586461346034A714644
:1024600010685DF804EB6246FFF752B800000020E8
:1024700084460A460249034B08686146FFF748B89C
:1024800000000020680000202DE9F04105460C46C0
:10249000214F1346294622463868FFF739F802468D
:1024A0000B460C46054606F0E9F940BB2146284696
:1024B00006F042FA20F0004806461849404606F069
:1024C0005FFDC8B94046154906F03CFDA0B924F0AF
:1024D000004428464FF0FF322146114B06F0CEF95A
:1024E00038B928464FF0FF3221460D4B06F0A8F9C7
:1024F00010B122223B681A603046BDE8F081002C02
:10250000084804DAFEF772FE00F10046F4E7BDE881
:10251000F041FEF76BBE00BF00000020FFFF7F7F91
:10252000FFFFEF7FCCCC00082DE9F0410446214F9E
:102530000A46214B21463868FEF7EAFF02460B4661
:102540000C46054606F09AF940BB2146284606F09F
:10255000F3F920F0004806461849404606F010FD01
:10256000C8B94046154906F0EDFCA0B924F0004476
:1025700028464FF0FF322146114B06F07FF938B95B
:1025800028464FF0FF3221460D4B06F059F910B1A5
:1025900022223B681A603046BDE8F081002C0948D1
:1025A00004DAFEF723FE00F10046F4E7BDE8F0414F
:1025B000FEF71CBE0000002068000020FFFF7F7FA8
:1025C000FFFFEF7FCCCC00082DE9F04F81468E460F
:1025D000444D70461EF801CB15F80C4014F0080469
:1025E000F7D1BCF12D0FE34653D06FF00048BCF19A
:1025F0002B0F04BF9EF800B000F1020E1BB1102B90
:102600004FD01F4604E0BBF1300F55D00A231F46C0
:102610000025B8FBF7F6284607FB168A07E0864236
:1026200015D329D0012507FB00C01EF801BBABF173
:10263000300CBCF1090F06D9ABF1410CBCF1190FFC
:1026400008D8ABF1370C63450DDD002DE7DA4FF00C
:10265000FF35EAE7ABF1610CBCF1190F03D8ABF120
:10266000570C6345F1DC002D0BDB04B140420AB18D
:1026700095BB1160BDE8F08FE245D3DA4FF0FF352E
:10268000D3E72223C9F800301AB340460EF1FF31D8
:10269000EFE79EF800B04FF00048012400F1020E71
:1026A000ACE7BBF1300FACD19EF8000000F0DF00CA
:1026B000582807D01F46ABE79EF8003003F0DF0331
:1026C000582B0BD110279EF801B03B460EF1020E9D
:1026D0009EE74046BDE8F08F8046D6E708231F46B8
:1026E00096E700BF21C50008012B02D0242B00D89B
:1026F0006AE710B5FDF750FD16230360002010BDFA
:10270000012A10B509D0242A07D8074C13460A46D7
:1027100001462068BDE8104056E7FDF73DFD162351
:102720000360002010BD00BF00000020012A10B58A
:1027300009D0242A07D8074C13460A4601462068C8
:10274000BDE8104040E7FDF727FD16230360002099
:1027500010BD00BF0000002038B50C461146002215
:102760008446074D20462A601A46644608F0E0FE7B
:10277000431C00D038BD2B68002BFBD0236038BD34
:1027800004020020002238B5064D044608462A609F
:1027900008F0DCFE431C00D038BD2B68002BFBD0BA
:1027A000236038BD040200202DE9F04F03690C6955
:1027B00085B0A342C0F28980013C01F11405A30059
:1027C00000F11408019355F8243058F824200133FF
:1027D0008A469A4208EB84018146B2FBF3F605EB88
:1027E000840702913AD30021AE4640460A46A346EA
:1027F00003955EF8045B0468ABB206FB03132D0C73
:10280000190C06FB05119BB2D21A1FFA84FC9444E2
:102810008AB2C2EB144202EB2C421FFA8CFC4CEA47
:102820000243774540F8043B4FEA11414FEA224208
:10283000DFD2019B5C4658F80330039D73B9029BBD
:10284000043B984504D307E0984504F1FF3403D2D4
:1028500053F80429002AF7D0C9F8104051464846D9
:1028600001F0EEFF00282CDB40460023013655F82E
:10287000041BD0F800C08AB29A1A1FFA8CFE0B0C07
:102880007244C3EB1C4303EB224392B242EA03427D
:10289000AF4240F8042B4FEA2343E8D258F82420F3
:1028A00008EB84036AB9043B984504D307E09845D4
:1028B00004F1FF3403D253F80429002AF7D0C9F8F1
:1028C0001040304605B0BDE8F08F002005B0BDE8EF
:1028D000F08F00BF2DE9F04F90469946466A99B0B7
:1028E0000546CDE90289259C002E00F00D83316854
:1028F00049B10123726893404A608B6001F0E0FCAB
:1029000000226B6A1A60B9F1000AB4BF01230023E8
:102910002360754BBCBF2AF0004ACDF80CA033EA07
:102920000A0300F0AA80DDE902341846214600229D
:102930000023CDE9080105F06FFF074670B10123C0
:10294000249A1360269B002B00F0F78267481860DA
:10295000431E0493049819B0BDE8F08F16AB0193A1
:1029600017AB00932846DDE9082302F0B9F85FEAC7
:102970001A56044640F09780DDE916763E4406F28A
:102980003240202840F3C883C0F140000AFA00FA20
:1029900006F2124028FA00F04AEA000005F05AFC5C
:1029A0000123013E1093A1F1F8710022504B05F074
:1029B00013FB47A3D3E9002305F0C6FC46A3D3E9E4
:1029C000002305F00BFB80463046894605F052FC9B
:1029D00043A3D3E9002305F0B7FC02460B4640466B
:1029E000494605F0FBFA8046894605F05DFF002266
:1029F000834600234046494605F018FF002840F072
:102A00008F82BBF1160F00F27282DDE90801394BAB
:102A100003EBCB03D3E9002305F008FF00286FD0B8
:102A20000023BE1B0D93731E0BF1FF3B059300F1BA
:102A3000658200230A93BBF1000F68DA0A9BCDF888
:102A400018B0A3EB0B030A93CBF100030C93229B6A
:102A50004FF0000B092B63D8052B40F35B83002656
:102A6000043B2293229B023B032B00F27E86DFE88D
:102A700013F0740471046804490442F20F73249A39
:102A8000CAF3130A13605AEA08031AD1269B002BD3
:102A900000F06186184B04930833269A049813605B
:102AA00019B0BDE8F08FDDE90812C2F31303084640
:102AB00043F07F511097A6F2FF36169F41F4401164
:102AC00073E7269B002B40F000840C4B049341E7F6
:102AD00061436F63A787D23FB3C8608B288AC63F24
:102AE000FB799F501344D33F0000F07F69CD00086D
:102AF0000000F83F40C70008ACCD0008B8CD000882
:102B0000BE1B731E059300F1C6840D900A90059BB1
:102B10005B44CDE9053B00230C93229B092B9BD9F9
:102B2000002322934FF0FF330126079300230B96D7
:102B3000239300216B6A5960079B1193284601F08B
:102B40007FFB0490002800F019866B6A049A1A60D3
:102B5000079B0E2B00F21481002E00F011810699C4
:102B6000002940F36C84AF4B01F00F0203EBC2036A
:102B70000A46D3E900674FEA2118D10540F12584C0
:102B8000DDE90801A84B4FF0030AD3E9082305F05B
:102B900005FDCDE90E0108F00F08B8F1000F13D0C4
:102BA000DFF8849218F0010F09D0D9E900233046EC
:102BB000394605F0C9FB06460F460AF1010A5FEAED
:102BC000680809F10809EDD1DDE90E0132463B46FE
:102BD00005F0E4FC804689460D9B43B10022404647
:102BE0004946924B05F022FE002840F045855046AC
:102BF00005F040FB42464B4605F0A6FB8C4B0022FD
:102C000005F0ECF9A1F15073CDE90E010F93079B8C
:102C1000002B00F09780069B1393079B12930B9B4E
:102C2000002B00F0BD84129A7E4B002003EBC20300
:102C300053E902237F4905F0B1FCDDE90E2305F0DD
:102C4000CBF9CDE90E014946404605F02DFE074679
:102C500005F010FB02460B464046494605F0BCF91C
:102C6000DDE90E23049E303706F8017B8046894655
:102C700005F0DCFD002840F04385CDF854B01495F4
:102C8000DDE90EAB0027129D0E942AE00137AF421A
:102C900080F23E85504659460022674B05F054FBB2
:102CA0000022654B82468B464046494605F04CFB68
:102CB0008946804605F0F8FD044605F0DBFA024639
:102CC0000B464046494605F087F9303452465B468C
:102CD00006F8014B8046894605F0A8FD002840F023
:102CE0000D8542464B460020504905F075F9524685
:102CF0005B4605F09BFD0028C8D0DDE913350E9C2E
:102D0000049A069302E0B24200F0DD84B24616F85F
:102D1000013D392BF7D00133DBB23370069B013311
:102D20000693DAE1504605F0A5FA42464B4605F017
:102D30000BFB3F4B002205F051F9A1F15073CDE997
:102D40000E010F934046494600223C4B05F044F9E2
:102D5000DDE90E894B46424606460F4605F084FDE6
:102D60008146002840F0BF84DDE90E01024601F1F2
:102D700000433046394605F059FD002840F056839F
:102D8000179B002BC0F28C80069A0E2A00F38880D5
:102D9000244B03EBC203D3E900AB239B002B1BDACC
:102DA000079B002B18DC40F03F830022234B50464A
:102DB000594605F0C9FA02460B46DDE9080105F05F
:102DC0003FFDDDF81C904E46002800F0DE82239B7C
:102DD000DDF81080DF43E0E25246DDE908785B462B
:102DE0003846414605F0DAFB05F05EFD814602906B
:102DF00005F040FA52465B4605F0A6FA049E0B46E3
:102E000002464146384605F0E7F809F1300306F876
:102E1000013B079B012B00F06E830127994602942A
:102E200005952AE040C7000830C800080000F03FC0
:102E300000001C400000E03F00002440000014405F
:102E400052465B462046294605F0A8FB05F02CFDBE
:102E5000804605F00FFA52465B4605F075FA0137D9
:102E60000B4602462946204605F0B6F808F1300325
:102E70004F4506F8013B00F03A830022B44B05F0C1
:102E800063FA0022002304460D4605F0C5FC002825
:102E9000D6D0029C059D069BB246013306931CE1E9
:102EA0000B9A002A4FD0229A012A40F3A682079B50
:102EB00003F1FF380C9B434580F284820C9BCDF8D4
:102EC0003080A8EB03034FF000089B44079B002BC6
:102ED000C0F24983059A1A4405920A9A17461A4481
:102EE0000A920121284601F003FB06462FE0012348
:102EF000BE1B0D93731E05937FF59BADC6F10103B9
:102F00000A930023059396E5102001F0ABF8686260
:102F1000002800F02484C0E901660660C660F2E47F
:102F2000584605F0A7F942464B4605F075FC0028C7
:102F30007FF467AD0BF1FF3B63E5864B0493049888
:102F400019B0BDE8F08FDDF83080DDE90A76002F9A
:102F50000CDD059900290B4608DDB942A8BF3B46A8
:102F60000A9AFF1AD21ACB1A0A9205930C9BE3B164
:102F70000B9B002B00F05C82B8F1000F10DD314696
:102F80004246284601F078FB06462246314628464E
:102F900001F0C4FA0346214628461C4601F090F988
:102FA0000C9BB3EB080240F0D8820121284601F0C7
:102FB0009FFABBF1000F814600F3B380229B012BE7
:102FC00040F388814FF0000A0120BBF1000F40F070
:102FD000B480059A104410F01F0000F09280C0F1F8
:102FE0002003042B40F3D1830A9BC0F11C0003444F
:102FF00002440A93074405920A9B002B05DD2146F3
:103000001A46284601F0A8FB0446059B002B05DD67
:1030100049461A46284601F09FFB81460D9B002B2E
:1030200040F03881079B002B40F31E810B9B002B47
:1030300040F09F80069B013306930127DDF8108046
:10304000DDF81CA007E0214600230A22284601F0F3
:103050005BF90446013749462046FFF7A5FB574573
:1030600000F1300308F8013BEDDB079A0027002A46
:10307000CCBF93464FF0010B049A934421460122A2
:103080002846029301F068FB4946044601F0D8FB4C
:10309000002840F3A7811BF8013C049A0BF1FF3B89
:1030A00004E05A4500F0B9811BF8013D392B0BF1C2
:1030B000010AF6D001338BF800304946284601F06A
:1030C000FFF856B12FB1B74203D03946284601F078
:1030D000F7F83146284601F0F3F82146284601F07A
:1030E000EFF80023069A8AF80030249B1A60269B8A
:1030F000002B3FF42FAC0498C3F800A019B0BDE832
:10310000F08F1C200A9B074403440A93059B034449
:10311000059371E70126A5E4C0F1200008FA00F04C
:103120003CE401465A46284601F0A6FA229B814615
:10313000012B40F3B2814FF0000AD9F8103009EBAF
:103140008303186901F088F9C0F1200041E700BF4E
:103150000000244068CD0008314600230A2228469A
:1031600001F0D2F8119B0646002B40F3E582CDE931
:103170000683002F00F31F81BAF1000F40F0D681C3
:10318000B046029B079903F00102049B08921F4678
:10319000013B1944229B079113430A934946204659
:1031A000FFF702FB31468346204601F049FB4246C9
:1031B00049468246284601F063FBC26801460BF18E
:1031C0003003002A43D102902046059301F038FBDA
:1031D000024602992846029201F072F8029A059B73
:1031E0001AB90A99002900F09982BAF1000FC0F2C9
:1031F000608122994AEA010A089951EA0A0100F01D
:103200005881002A00F3B381079A07F1010A974217
:10321000D3463B7000F0B181214600230A222846A4
:1032200001F072F84645044631464FF000034FF076
:103230000A02284612D001F067F8414606460023EC
:103240000A22284601F060F857468046A6E728463D
:10325000029301F035F80122029BC6E701F054F811
:1032600057460646804699E7229B022B7CDC0B9B47
:10327000002B7FF47EAF069B494601332046069320
:10328000FFF792FADDF810B000F1300300270BF8D9
:10329000013BF3E64946204601F0D2FA0028BFF68A
:1032A000C1AE214600230A22284601F02DF8069BD4
:1032B000044603F1FF380B9B002B7FF44DAF119BAD
:1032C000002B40F332820793B7E6B14B04930333EC
:1032D000FFF7E3BBDDE9021200297FF473AEC2F30E
:1032E0001303002B7FF46EAEAA4B1340002B00F0AB
:1032F000FE810A9B4FF0010A01330A93059B0133BB
:10330000059361E601230B93239B069A13441193C3
:103310000133012B1846B8BF0120079300216F6AC3
:10332000172879607FF70AAC012204235B0003F1C0
:10333000140C8445114602F10102F7D97960FFF7B8
:10334000FDBB01230B93239B002B46DD18461193F5
:103350000793E3E700230B93D6E700230B93F2E7F1
:10336000119BCDF818800793079B002B7FF42FAD9E
:1033700049460522284600F0C7FF814620464946B7
:1033800001F05EFA00287FF722AD31230498069FF2
:10339000804600F8013B013704904946284600F07A
:1033A0008FFF7B1CDDF810A00693CDF81080002E57
:1033B0007FF48FAE91E631463A46284601F0CCF9CB
:1033C0000646D9E6A3EB080880E5DDE908234FF0BF
:1033D000020ACDE90E23FFF7E0BB012323930793F5
:1033E000FFF7A7BB03D1029BD8073FF554AEDA46DF
:1033F0001BF8013D302BFAD05FE6109A002A00F04E
:10340000C28003F23343059ADDF830801A440592F6
:103410000A9A17461A440A9263E5069B049A0133F6
:1034200006933123137048E64FF000094E46CEE470
:10343000214628460C9A01F01FF90446B5E500F034
:103440001581DDE90801069A534B564206F00F023A
:1034500003EBC203D3E9002304F076FF3611804664
:10346000894600F0748100234FF0020A4B4FF207A7
:1034700006D5D7E9002304F067FF01230AF1010A0A
:10348000761007F10807F2D1002B3FF4A5AB804678
:103490008946FFF7A1BB0D9030E5029B002B7FF41E
:1034A0004AAEDDE90212C2F31303002B3FF41CAF56
:1034B00041E6002A12DD214601222846029301F04E
:1034C0004BF94946044601F0BBF90028029B40F342
:1034D0001981392B00F0FD800BF13103BA46069AB1
:1034E00037460132464606920AF8013BE5E5059D5E
:1034F000029CCDF8088002460B4604F06FFD524650
:103500005B468046894605F0AFF960B952465B4696
:103510004046494605F080F900283FF4BCAC029BC8
:10352000D9077FF5B8AC049AFFF7F0BB284671685D
:1035300000F086FE0746002800F02C81336906F172
:103540000C0102339A000C3000F004FE39460122CF
:10355000284601F001F9804613E62146284601F08D
:103560008BF8044621E50A9B079A9F1AB9E4392B88
:1035700000F0AF80BA460133B1E7069A3746013210
:10358000464606927AE5169BC3F136033BE700BF39
:10359000B8CD00080000F07F40C7000830C8000820
:1035A000DDF848A08549DDE90E2301EBCA0151E9A8
:1035B000020104F0C9FECDE90E014946404605F07E
:1035C00073F9064604F056FE0B460246494640464D
:1035D00004F002FD5346049F3036012B8046894695
:1035E00007F8016B00F0B180129E049B1E4400227C
:1035F000734B4046494604F0A7FE8946804605F0D5
:1036000053F9824604F036FE02460B4640464946D0
:1036100004F0E2FC0AF1300A07F801ABB742804639
:103620008946E4D1DDE90E010022664B04F0D6FCA8
:1036300042464B4605F0FAF800285AD1DDE90E2340
:103640000020604904F0C8FC42464B4605F00CF9E6
:1036500000283FF495AB16F8013CB246302B06F13A
:10366000FF36F8D0139B0133069336E54FF0020A7C
:10367000DDE90889FFF7B0BA079B002B3FF452AB96
:10368000119B002B7FF77CAB1293069B0022013B22
:103690004046494613934A4B04F056FE80468946FD
:1036A0000AF1010004F0E6FD42464B4604F04CFEF0
:1036B000454B002204F092FCA1F15073CDE90E01BC
:1036C0000F93FFF7ACBA069B013306933123FFF744
:1036D00024BB069BBB4601330693392337460BF8C0
:1036E000013B4646D9E44FF000094E464DE69A4666
:1036F0006AE4139B049A0693FFF708BB0E9C149D83
:10370000B246AFE77FF4EAAEDA077FF5E7AEE0E670
:10371000DDF854B00E9C149DFFF732BB392BD8D086
:10372000BAF1000F3FF7D8AED8E6229B022B3FF745
:1037300017AECDF818809EE5229B022B3FF710AE06
:10374000119BCDF81880079313E53E466AE74FF0CA
:10375000020AFFF741BA1D4B0493FFF7FBB802467C
:10376000EA211B4B1B4802F04DFB00266B6A3146D9
:1037700028465E6000F064FD049090B900224FF48A
:10378000D571154B134802F03DFB3FF435ACC0F149
:103790003C00B7E4024640F2EA210F4B0D4802F02C
:1037A00031FB6B6A04994FF0FF32196001232396B5
:1037B00011920B930792FFF7E3BA00BF40C70008CE
:1037C000000024400000E03F00001C40ACCD000899
:1037D000BCCD0008D4CD000808CE00082DE9F0418A
:1037E0000469B4EB611F2FDD00F1140E4E1111F0CE
:1037F0001F0C0EEB84050EEB86032BD05EF8262003
:1038000004339D4222FA0CF1CCF1200818D97746F6
:103810001A6802FA08F20A4347F8042B53F8041B0B
:103820009D4221FA0CF1F3D8A41BA300053B9B0891
:1038300001330EEB83044EF82310C9B1043417E0B2
:10384000744641610029F9D10023036100234361DB
:10385000BDE8F0819D4288BF00F11002F4D953F811
:10386000041B9D4242F8041FF9D8A41B0EEB8404EC
:10387000A4EB0E039B1074450361E7D0BDE8F08113
:103880002DE9F04F0446A948894606688BB03046BA
:103890000292079303960594FDF70AFE3346D9F882
:1038A00000500344A9780246302913F801BC40F0C7
:1038B000DB816FF00100EB1C401B1D4600EB030A8F
:1038C00013F8011B3029F8D0DFF8648218F80130B2
:1038D000002B00F0F18000273C462B7818F80330CD
:1038E0002E462BB116F8013F18F80330002BF9D102
:1038F00030460399019202F0B5F8019A0090002831
:1039000000F09280002C40F092803378009403F015
:10391000DF03502B344600F09480C9F80060002F7C
:1039200040F0AC80631B013B072B394604DD5B1084
:10393000072B01F10101FADC0598049200F080FCEC
:10394000049A0190002800F06A82019BA54203F1CD
:103950001406069680F0DD810027C2F10103B94606
:10396000049311E0202F00F092803946043714F8B8
:10397000013C544618F80330AC4203F00F0303FA3D
:1039800001F349EA030916D914F8013C04F1FF3A9E
:103990005B45E7D1049B5344AB42E3D318460399FC
:1039A0000992089302F05EF8DDE908320028D9D1C7
:1039B0001C46AC42E8D8069B46F8049BF61A019BCD
:1039C000B6101E61484600F047FD029B76011C6858
:1039D000301AA04200F3AE80C0F226810027029B7D
:1039E000009A9B689342C0F289810299009A4B68C1
:1039F00093427EDD9D1AAC4200F3BC80CA68022A65
:103A000000F0BC81032A00F0B481012A00F0988103
:103A100050250598019900F053FC00232846149A7C
:103A200013600BB0BDE8F08F002C00F00B81A41BDD
:103A3000A30000933378344603F0DF03502B7FF468
:103A40006CAF63782B2B00F0ED802D2B6AD000201B
:103A5000661C18F803104B1E182B61D873781039A8
:103A600018F80330013623BB00B14942009BC9F866
:103A700000600B440093002F3FF454AFBAF1000FE5
:103A800014BF0025062528460BB0BDE8F08F0021A5
:103A900046F8049B0427894669E701EB810103EBA3
:103AA0004103A3F1100116F8013F18F80330002B71
:103AB000DAD0192BF1DDD7E728460399009201F0FF
:103AC000D1FF009A002873D1A95CAC1818F8013016
:103AD000002B6FD03029254605D115F8013F302B3A
:103AE000FBD018F80330B3FA83F74FF0010A7F09CF
:103AF000F6E6012557B1029BDB68022B62D0032B4F
:103B000064D0012B00F0858045F010052846149BF9
:103B1000019A1A60079B009A1A600BB0BDE8F08FFB
:103B20002646FAE60120A378A61C92E724C70008DF
:103B300024C60008019D061B3146284601F0AEF858
:103B4000074678B10127721E0699531151F82310C8
:103B500002F01F0307FA03F30B4203D0BA4200F34B
:103B6000E2800227009B3146334401980093FFF71F
:103B700035FE34E76E1E002F40F0C980002E40F065
:103B8000CC8001230699721151F8222006F01F06FD
:103B900003FA06F629461642019818BF47F00207B5
:103BA000FFF71CFE029B641B5B6802250093A1E7E4
:103BB0002C46297801F0DF01502900F0BD80C9F8BA
:103BC00000405BE7159BC3F101031593159B002B88
:103BD0009AD0019BDDF818801E6900204346B7008B
:103BE00008EB860103E0994243F8040C40D99C4657
:103BF00053F8042BB2F1FF3FF5D00132022DCCF87F
:103C0000002000F0C08014F01F0440F0E280212565
:103C10007CE7BA077FF578AF069B1B681F43FB075D
:103C2000D7D471E700207EE7221ADDE9003105983C
:103C30009B1A009300F090FD034614330027019077
:103C40000693CCE6B35CB01818F8031006460029BA
:103C50003FF45DAE16F8013F18F803100029F9D1C2
:103C6000801B8100009152E64FF0000A02352BE6DE
:103C7000019B9B689E4280F28D8033460121019A10
:103C80005818022D02EB8303106159617BD08642E4
:103C9000B9DA002840F3AA80019A08EB8000536942
:103CA00002F1180188424FEA530340F2B2804446C1
:103CB0000A6843EAC27344F8043B51F8043B884263
:103CC0004FEA5303F4D8019A821A193A9208013242
:103CD00048F8223008EB8202002B40F09E800199C8
:103CE000A2EB08039B1042450B6100F08280029B0F
:103CF000009A9B6801329342009288DA01990598F4
:103D000000F0DEFA0023149AA3251360BBE6012716
:103D100037E74FF00009069E4DE63146019800F066
:103D2000BDFF07462DE72846B11E00F0B7FF00286B
:103D30003FF417AF032715E700230127009380E620
:103D4000AC427FF465AE012C08D00198611E00F0F2
:103D5000A5FF00283FF45CAE029B5B680122079937
:103D600062250B60019B06991A610A60149A136020
:103D700089E6159A002A3FF44BAEEFE7159A002A20
:103D80007FF446AEEAE7029B1B68013BA34234D0B6
:103D90002225BBE6019B05985968013100F050FAD5
:103DA0008046002841D0DDF804900C304946D9F80F
:103DB00010300C3102339A0000F0CCF949460598D6
:103DC00000F07EFAD8F81030CDF8048008F114081D
:103DD00054E7474457F8040C00F03EFBC4F12004BC
:103DE000A042BFF614AF019B186952E70023019A65
:103DF00013610023019A536179E70123621158F896
:103E0000222004F01F04A34013420CBF22252125C9
:103E10007CE64246C8F800306BB104325FE70246E8
:103E2000DE21064B064801F0EDFF02468421034BDC
:103E3000034801F0E7FF019A1361DAE708CE0008B2
:103E40001CCE000810B58646046809E014F8013F4E
:103E5000A3F1410CBCF1190F98BF2033934208D154
:103E600011F8012B002AF1D101340120CEF80040D5
:103E700010BD002010BD00BF2DE9F04F096885B0CE
:103E80004B1111F01F01029002EB8303039140F0EC
:103E90008E801D1F0193002302990198096840F844
:103EA000043C4C1C4978002900F09780A846AC4699
:103EB0009A461E46DFF868910EE0202900F28B80BA
:103EC000B24506DAC44501D2072B5BDD624551D30A
:103ED000082314F8011FA1B119F801000028ECD043
:103EE0000133082B06F101063ADCDCF80010090169
:103EF00000F00F000843CCF8000014F8011F00295F
:103F0000EAD1002E69D0E04501D9072B73DD624567
:103F100051D26346111F53F8040B9D4241F8040F20
:103F2000F9D2A5EB0C0323F00303691C04330CF155
:103F3000010C614538BF04230021134443F8041BDE
:103F40009D42FBD2019B53F8043C2BB9AA4248D0B6
:103F500055F8043D002BF9D0052005B0BDE8F08FE1
:103F60006245B6D20023ACF1040CCCF800301946FF
:103F70000123BDE70023ACF104084CF8043CB24631
:103F8000C446A6E7C3F10801890060468B46DCF809
:103F90000030C1F1200E416801FA0EF73B43036087
:103FA00021FA0BF340F8043F4045F4D38EE7191D86
:103FB0001D4601916FE7039B002BC3D04FF0FF33E9
:103FC000019C039954F8040CC1F12001CB4003403B
:103FD00044F8043CB9E7292909D0042005B0BDE81C
:103FE000F08F012305202B6005B0BDE8F08F02990A
:103FF00001340C6085E76446C3F108039B00DCF8DC
:104000000010C3F12007666806FA07F0014321603B
:1040100026FA03F144F8041FA045F4D877E700BF5F
:1040200024C60008F030704700487047580100204F
:10403000004870475801002038B50C461146002250
:104040008446074D20462A601A46644607F088FADF
:10405000431C00D038BD2B68002BFBD0236038BD3B
:1040600004020020024B0146186800F0BBBE00BFEE
:1040700000000020024B0146186800F04DBE00BF52
:104080000000002010B4034CD4F8E440A44610BC57
:10409000604700BF6800002082B049B15AB16BB1DF
:1040A00013780B601278101E18BF012002B0704701
:1040B00001A9002AF3D1104602B070476FF0010049
:1040C000F4E700BF5FFA81FC810710D00346511E60
:1040D0002AB90AE09A0718460AD0013905D31846CA
:1040E00013F8012B6245F5D1704700207047114647
:1040F00003290CD80029F8D00346014401E08B4283
:10410000F3D0184613F8012B6245F8D1ECE70246CC
:1041100010B54CEA0C2444EA044410460368043207
:104120006340A3F1013E2EEA030313F0803F04D164
:10413000043903291046F0D851B10346014401E087
:104140008B4205D0184613F8012B6245F8D110BDFB
:10415000002010BD844641EA000313F0030349D157
:10416000403A23D30B6803604B6843608B688360DD
:10417000CB68C3600B6903614B6943618B698361E1
:10418000CB69C3610B6A03624B6A43628B6A8362C9
:10419000CB6AC3620B6B03634B6B43638B6B8363B1
:1041A000CB6BC36340304031403ADBD230320BD36B
:1041B0000B6803604B6843608B688360CB68C360A7
:1041C00010301031103AF3D20C3205D351F8043BC1
:1041D00040F8043B043AF9D2043208D0D2071CBF9D
:1041E00011F8013B00F8013B01D30B8803806046C6
:1041F000704700BF082A13D38B07B1D010F0030318
:10420000AED0C3F10403D21ADB071CBF11F8013B87
:1042100000F8013BA4D331F8023B20F8023B9FE7B2
:10422000043AD9D3013A11F8013B00F8013BF9D225
:104230000B7803704B7843708B78837060467047BF
:1042400070B5466A05460C465EB1F368A3B153F8F3
:104250002400E8B1026843F824200023C0E90333B6
:1042600070BD1020FFF7FEFE06466862E8B100232D
:10427000C0E901330360C36021220421284600F015
:104280003DFD6B6AF060DB68002BE0D1002070BD63
:104290000121284601FA04F56A1D920000F02EFD66
:1042A0000028F3D0C0E90145D7E702466621024B5A
:1042B000024801F0A7FD00BFBCCD000868CE000891
:1042C00070B5466A05460C464EB13CB16B6A6268F1
:1042D000DB6853F82210216043F8224070BD1020A3
:1042E000FFF7C0FE686220B1C0E901660660C660E3
:1042F000EBE702468A21024B024801F083FD00BF32
:10430000BCCD000868CE00082DE9F0414FF0000E4A
:104310000E461C460D69074601F1140001680EF1B6
:10432000010E8BB202FB0343090C4FEA134C02FB54
:1043300001CC9BB203EB0C43754540F8043B4FEABC
:104340001C44EBDC3CB1B368AB4207DD06EB8503F4
:1043500001355C6135613046BDE8F08171683846F1
:104360000131FFF76DFF804690B1326906F10C0113
:10437000023292000C30FFF7EDFE314646463846D9
:10438000FFF79EFF06EB850301355C613561E2E7CF
:104390000246B521014B024801F034FD08CE000869
:1043A00068CE00082DE9F8431E46DFF8A0C0174686
:1043B00003F108028CFB023C092E4FEAE27305462A
:1043C0000C46C3EB6C0339DD4FF0010C00214FEAC2
:1043D0004C0C634501F10101F9DC2846FFF730FF81
:1043E000014668B3089B092F43614FF00103036145
:1043F00012DC09270A34BE420BDDF61B264414F8F2
:10440000013B0A222846303BFFF77EFFA6420146C9
:10441000F5D10846BDE8F88304F10909C8463C44D3
:1044200018F8013B0A222846303BFFF76DFFA045F4
:104430000146F5D1A7F108044C44DCE70021CCE7A4
:104440000246CE21024B034801F0DCFC398EE338F2
:1044500008CE000868CE0008020C12040346CAB950
:104460001020834013F07F4F04BF1B02083013F06D
:10447000704F04BF1B01043013F0404F04BF9B007A
:104480000230002B05DB13F0804F00F1010008BF64
:10449000202070470020E5E70368024613F007007C
:1044A00009D0D9071FD498074BBF5B089B08012090
:1044B00002201360704799B209B91020C340D9B2E5
:1044C00009B908301B0A190704BF1B0904309907F2
:1044D00004BF9B080230D90703D45B0800F1010038
:1044E00003D013607047002070472020704700BF42
:1044F00010B50C460121FFF7A3FE024618B10123B7
:10450000C0E9043410BD4FF4A071024B024801F021
:1045100079FC00BF08CE000868CE00082DE9F04FF6
:104520000E6915698846AE42144685B005DB2A46F9
:10453000234635460C4616469846A3686168AF196F
:10454000BB42B8BF0131FFF77BFE0190002800F0AD
:104550008780019B03F1140909EB870AD14505D235
:104560004B46002243F8042B9A45FBD808F1140867
:1045700008EB860B04F11403D8451A4603EB8505B6
:104580005FD22B1B153B23F0030304331534A542E4
:1045900038BF0423CDE902A7AC461F46924605E08A
:1045A000000C29D1C34509F1040948D958F8040B76
:1045B00085B2002DF4D056464C46002356F8040B25
:1045C000216882B21FFA81FE05FB02EE000C0A0C84
:1045D00005FB0022734402EB13429BB243EA024301
:1045E000B44544F8043B4FEA1243E7D849F8073092
:1045F00058F8040C000CD5D0D9F8003054461946B0
:104600004D4600222688090C00FB06119BB20A4485
:1046100043EA024345F8043B54F8046B2968360C1E
:104620008BB200FB0633A44503EB12434FEA13425F
:10463000E8D8C34549F8073009F10409B6D8DDE9DF
:1046400002A7002F02DC05E0013F03D05AF8043D29
:10465000002BF9D0019B18461F6105B0BDE8F08F13
:10466000024640F25D11024B024801F0CBFB00BF55
:1046700008CE000868CE00082DE9F04112F00303CF
:104680001446074682B02DD10E46A4101CD07A6A7B
:104690008AB39568002D39D0E3074FF0000806D49F
:1046A000641011D0286898B10546E307F8D5314663
:1046B0002A463846FFF732FF0346314638461E4643
:1046C000FFF7FEFD6410EDD1304602B0BDE8F08189
:1046D0002A4629463846FFF721FF28600546C0F8DC
:1046E0000080E2E7184A013B52F823200023FFF73D
:1046F0000BFE0646C9E71020FFF7B4FC02467862BD
:10470000E0B10023C0E901330360C36001213846F2
:104710000192FFF795FD019A054640B1012340F251
:104720007121C0E90431002390600360B4E70246C0
:104730004FF4A071054B064801F064FB4FF4D771AC
:10474000044B034801F05EFB30C7000808CE0008A8
:1047500068CE0008BCCD00082DE9F0470D462E6953
:10476000AB6806EB6216741C9C429146074649688A
:104770004FEA621A04DD5B009C4201F10101FADCA0
:104780003846FFF75DFD804600284ED0BAF1000F95
:1047900000F114000EDD034600210AF105024FEA84
:1047A000820C08EB820243F8041B9342FBD1ACF16C
:1047B00014031844296905F1140319F01F0903EBC8
:1047C00081012AD084464FF0000AC9F1200E1A68F0
:1047D00002FA09F242EA0A024CF8042B53F8042BBD
:1047E000994222FA0EFAF2D84B1B153B23F0030331
:1047F000043305F11502914238BF0423BAF1000FCA
:1048000018BF264640F803A038462946C8F810606D
:10481000FFF756FD4046BDE8F087043853F8042BF7
:10482000994240F8042FF9D8EEE7024640F2D91138
:10483000014B024801F0E6FA08CE000868CE0008F5
:1048400084460B690069C01A15D10CF1140C14319F
:104850000CEB830210B401EB830301E0944508D212
:1048600052F8044D53F8041D8C42F7D004D24FF097
:10487000FF3010BC70477047012010BC704700BF6C
:104880002DE9F84F0C6913698946E41A002C174684
:104890007DD101F11406143202EB830206EB83038F
:1048A00001E09E4276D253F8045D52F8041D8D4219
:1048B000F7D067D3D9F80410FFF7C2FC002873D0F3
:1048C000D9F81050C46000F1140426464FF0000AD5
:1048D0003B6909F1140807F1140E09F1100C08EBFB
:1048E00085020EEB83095CF804BF5EF8041B1FFA17
:1048F0008BF353441FFA81FA090CA3EB0A03C1EBB3
:104900001B4101EB23419BB243EA0143F14546F8C9
:10491000043B4FEA214AE6D8A9EB070115391537C0
:10492000B94521F0030606F1040638BF042621F03C
:10493000030138BF0021B044424526440C4418D935
:104940003746444654F8041B8BB253444FEA234A7B
:104950000AEB11419BB243EA0143A24247F8043BF0
:104960004FEA214AEED8541EA4EB080424F00304B5
:10497000344423B954F8043D013D002BFAD00561BD
:10498000BDE8F88F4B460124B9461F4692E7F9DB94
:1049900000248FE70021FFF753FC60B101220023C0
:1049A000C0E90423BDE8F88F02464FF41071054BAF
:1049B000054801F027FA024640F23221014B024835
:1049C00001F020FA08CE000868CE00080F4B0B401B
:1049D000A3F15073002B02DD0020194670475B42A3
:1049E000B3F1A07F4FEA235205DA4FF400230020F1
:1049F00043FA02F17047143A1E2AD6BF4FF0004323
:104A0000012223FA02F20021104670470000F07FD5
:104A10002DE9F041076900F1140606EB87070C4603
:104A200057F8041CA7F104080846FFF715FDC0F16C
:104A300020030A28236036DD46451ED2B0F10B0361
:104A400057F8082C26D0C3F1200C994022FA0CF01C
:104A50000843A7F1080140F07F558E4245F4401508
:104A60003AD202FA03F057F80C3C23FA0CF3034352
:104A70001C4620462946BDE8F081B0F10B0308D062
:104A800001FA03F0002340F07F551C4645F4401521
:104A9000EFE71A46144641F07F5545F4401520468D
:104AA0002946BDE8F081C0F10B0321FA03F2464527
:104AB00042F07F552CBF002257F8082C45F44015D2
:104AC00038BFDA4000F1150301FA03F343EA0204A8
:104AD00020462946BDE8F08102FA03F31C46C8E7E8
:104AE00070B5012182B016461D46FFF7A9FB0446AA
:104AF00000284CD02B46C5F30A55C3F313030DB160
:104B000043F48013002E019322D068460096FFF7ED
:104B1000C3FC002837D0019B0099C0F1200203FAA2
:104B200002F20A43C34001936261002B14BF0221C9
:104B30000121A3612161B5B1069BA5F2334505446E
:104B40001D60079BC0F135001860204602B070BDA3
:104B500001A8FFF7A1FC0123019A194662612030E8
:104B60002361002DE8D104EB8102A0F232431069E9
:104B7000069A1360FFF770FCC0EB41112046079BBB
:104B8000196002B070BDDDE900236261CDE7024625
:104B900040F20A31014B024801F034F908CE000816
:104BA00068CE00082DE9F04383B088466946814607
:104BB000FFF72EFF04460D46404601A9FFF728FFE8
:104BC000D9F81030D8F810200F469A1ADDE90063A2
:104BD000F31A03EB4213002B0CDD05EB03590646D9
:104BE0004D4632463B462046294603F0D7FC03B0EB
:104BF000BDE8F083C3EB033301EB035106460F46D8
:104C0000EFE700BF172870B506460ADD0020002434
:104C10000749084D22462B4603F096FB013EF9D189
:104C200070BD054B03EBC006D6E9040170BD00BFA3
:104C30000000F03F0000244030C7000801F1FF3CB5
:104C4000116902F114034FEA6C1C03EB81010CF1B2
:104C5000010C8B4200EB8C0C16D210B5A0F1040EA7
:104C600053F8044B99424EF8044FF9D88B1A153B70
:104C700023F0030304331844844504D9002340F887
:104C8000043B8445FBD810BD844505D9002340F87A
:104C9000043B8445FBD87047704700BF03694A1145
:104CA000934200F1140009DA00EB830302E053F8A9
:104CB000042DC2B98342FAD80020704710DD11F0EC
:104CC0001F010DD010B450F8224000EB820324FAEB
:104CD00001F202FA01F18C420BD0012010BC7047A6
:104CE00000EB8203E6E70120704753F8042D002A09
:104CF000F3D18342F9D8002010BC704738B502FBCD
:104D000001F5294600F06EF8044618B12A46002144
:104D1000FBF76CFA204638BD002952D038B551F85F
:104D2000043C0C1F002BB8BFE418054601F078FBCB
:104D30002B4A1368002B45D0A3420CD92168601878
:104D4000834228D0636028461460BDE8384001F0F3
:104D500069BBA3420FD81A465B68002BF9D11168D2
:104D6000501884421DD034D3636054602846BDE897
:104D7000384001F057BB11685018A04215D028D810
:104D8000216860188342EFD118685B680144C4E968
:104D900000135460EAE718685B680144C4E9001333
:104DA000D1E7236819441160E0E7206801445018F6
:104DB00083421160DAD1D3E900030144C2E9001350
:104DC000D4E77047284663601460BDE8384001F0BE
:104DD00029BB0C2328462B60BDE8384001F022BBDC
:104DE000FC010020F8B5CD1C25F0030508350C2D7D
:104DF00038BF0C25002D064623DBA94221D8264FBB
:104E000001F00EFB3A6822B3144603E063682246C1
:104E1000FBB11C4623685B1BF8D40B2B15D86368C9
:104E200094420CBF3B605360304601F0FBFA04F142
:104E30000B00231D20F00700C21A01D01B1AA3503B
:104E4000F8BD0C2300203360F8BD23601C442560AE
:104E5000EAE77968D1B12946304600F0ABFD431C42
:104E600001460CD0C41C24F00304A04205D03046F7
:104E7000611A00F09FFD013001D02560D4E70C23BA
:104E80003046336001F0CEFA0020F8BD304600F025
:104E900091FD7860DFE700BFFC0100202DE9F047BD
:104EA0008F680C469F421D46164638D88246888930
:104EB00010F4906F0ED13D4608682A46314601F045
:104EC00033FA0020A2682368D21B2B44A26023601F
:104ED000BDE8F0874B69096903EB4308236808EBD9
:104EE000D878A3EB01096B1C4FEA68084B44434593
:104EF000424684BF98464246430513D51146504664
:104F0000FFF770FF074608B34A462169FFF722F909
:104F1000A38923F4906343F08003A38107E01F4635
:104F20000868CAE7504601F07FFA074650B107EB20
:104F30000900A8EB09032761C4F814802F46A36079
:104F40002060BAE750462169FFF7E6FE0C23CAF855
:104F50000030A3894FF0FF3043F04003A381B7E74F
:104F60002DE9F04F9368914683B0002B6ED01768FF
:104F700080460C4608688D68083744E0B4F80CC0D9
:104F80001CF4906F2ED0D4E90413451A03EB4303AD
:104F900003EBD373AA194FEA630A531C53455246D5
:104FA00084BF9A4652461CF4806F36D01146404664
:104FB000FFF718FF00283AD02A4621690190FFF731
:104FC000C9F8A289019B22F4906242F08002A2817A
:104FD0005819AAEB0505A560C4F814A03546B246D9
:104FE000236120605946524601F09EF9D9F80830F5
:104FF000A16820684D1B50449E1BA5602060C9F825
:1050000008601EB3083757E902B6002EFAD0B54241
:10501000AA46B3D93546B246E4E7404601F004FA61
:1050200003460028D4D140462169FFF775FE0C23C2
:1050300000224FF0FF30C8F80030A38943F040034E
:10504000A381C9E9012203B0BDE8F08F002318460F
:10505000C9F8043003B0BDE8F08F00BF2DE9F04F70
:105060001C468B890F461D06804692469DB003D58F
:105070000B69002B00F0F3800023099330232022DA
:105080008DF82A309AF80030039401257B4C8DF876
:105090002920002B76D0D14603E019F8013F002BE0
:1050A00079D0252BF9D1B9EB0A0B77D199F80020EB
:1050B000002A67D000234FF0FF3209F10109CDE942
:1050C0000523049307938DF853301A9304E0001BD3
:1050D00005FA00F018430490CA460522204619F844
:1050E000011BFEF7EFFF049B0028F0D1D80644BF58
:1050F00020228DF85320190748BF2B229AF8001060
:1051000048BF8DF853202A2956D1039A11680432DA
:10511000002903927EDB07919AF801100AF1010A37
:105120002E295BD0DFF8589103224846FEF7CAFFCC
:1051300048B14022049BA0EB090002FA00F00343AF
:105140000AF1010A04931AF8011B06224D488DF852
:105150002810FEF7B7FF002862D04B4B002B52D02F
:1051600003A900913A464046484B04A9FBF758F979
:105170000646721C06D0099B334409939AF8003006
:10518000002B88D1BB895B064CBF4FF0FF300998DC
:105190001DB0BDE8F08FB9EB0A0BF3D05B46524669
:1051A00039464046FFF77AFE0130EBD0099B99F86B
:1051B00000205B4409937BE7A1F13002092AAFD8B4
:1051C000079B1AF8011F03EB830302EB4303A1F1D2
:1051D0003002092AF5D92E290793A3D19AF8011094
:1051E0002A2927D1039B0AF102001A680433002AF6
:1051F0000393B8BF4FF0FF339AF80210059282462E
:10520000B8BF05938EE7039B073323F007030833EA
:105210000393B0E7494243F00203079104937BE70D
:1052200003A900913A464046184B04A9FBF738FC05
:1052300006469EE70023A1F13002092A0AF1010A7D
:1052400005933FF66FAF1AF8011F03EB830302EBE0
:105250004303A1F13002092AF5D9059362E7402101
:10526000FFF7C0FD3860386110B140237B6103E770
:105270000C234FF0FF30C8F8003089E79CCE0008BF
:10528000A4CE0008A8CE0008210400089D4E000806
:1052900038B54B1C1AD014469389526B23F0200367
:1052A000A381CDB2AAB16268A36B9A4209DA2368DE
:1052B0005A1E226003F8015C63680133636028466C
:1052C00038BD214600F0C8FC0028F0D04FF0FF3573
:1052D000F5E7236922682BB1934203D212F8013C0F
:1052E000AB420FD060682346C4E90F20032104F1CC
:1052F000440262630122A16303F8465F2846C4E9C1
:10530000003238BD6368013A0133C4E90023D6E7AF
:1053100010B50C46496B69B104F14403994201D0C0
:10532000FFF7FAFC0020236C6063636013B1E36B4A
:10533000236010BD0022A389216943F020034FF0B0
:10534000FF302160A381626010BD00BF2DE9F04FE6
:105350000026854CADF5237D1546A0941278834C2C
:105360000DF10408CDE94466A194CDF818810093AD
:10537000B2B17F4E0746B35C0C4613F008034FF002
:10538000030BDFF8F0912BD1252A05F1010A40D05B
:1053900015466168002908DD21680878A8420FD009
:1053A00044980DF5237DBDE8F08F21463846A19B3A
:1053B0009847002840F0018121680878A842EFD181
:1053C000554663680131013B6360459B21600133B1
:1053D00045932A78002AE3D0B35C13F00803D3D0B6
:1053E00063680CE021680A780131B35C1B070ED5B5
:1053F0006368459A013BC4E9001301324592002BD2
:10540000F0DC21463846A19B98470028EAD00135B8
:10541000DFE74393419369782A2904D1102341930C
:10542000A97805F1020AA1F13002092A0CD800225C
:1054300002EB820201EB4202303A43921AF8011F5A
:10544000A1F130000928F3D903224A48FEF73AFEB9
:1054500048B10122A0EB090002FA00F0419A0AF1DA
:10546000010A10434190554615F8013B782B00F294
:105470008380DFE813F01201810081008100810048
:105480008100810081008100810081008100810014
:105490008100810081008100810081008100810004
:1054A00081008100810081008100810081008100F4
:1054B00081008100810081008100810081008100E4
:1054C000150181008100810081008100810081003F
:1054D00081008100810081008100810081008100C4
:1054E00081008100810081008100810081008100B4
:1054F00081008100810081008100810081008100A4
:10550000C700C700C70081008100810081008100C1
:105510008100810081008100810081008100810083
:10552000810081008100DB0081008100E4008100B6
:10553000810081008100810081008100F000CA00AB
:10554000C700C700C7008100F7008100810081000B
:105550008100FB000A010E0181008100E200810050
:10556000CA0081008100DB0091520008115300083D
:1055700021C50008A4CE00080A23CDF81CB142932F
:105580006368002B4BDD419B5A0626D5479B022BB7
:1055900040F38980042B40F38D804A4B002B3FF46D
:1055A00018AF6B462246384641A9FBF7CFFB0128CE
:1055B0003FF4F6AE02287FF40CAF449800286CD07C
:1055C000A38913F0400F18BF4FF0FF30E9E62146E2
:1055D0003846A19B98470028EFD122681378F35CE6
:1055E0001B07D3D563684599013B0131002B4591D9
:1055F000636002F10102EADD22601378F35C1B07AD
:10560000C4D5EFE705234793BAE70A2242926F2BEE
:1056100034BF0323042347936368002BB3DC214684
:105620003846A19B98470028ADD0C6E7419A42F47E
:105630000072419210224292E9E70223EBE72946E9
:10564000404600F0C9F901234793419B054643F0CA
:105650004003419394E700234793419B43F0400369
:1056600041938DE7002342930323D4E7419BD8065F
:105670003FF5AFAED907009B459A03F104010091B5
:105680001B684CBF1A801A60A3E6082342930423C8
:10569000C1E7419A42F02002C9E74FF0FF3080E6AF
:1056A000AA46252575E66B462246384641A900F0F4
:1056B0000BF87CE76B462246384641A900F066F8B5
:1056C00075E700BF4D0D00082DE9F84314468A68C0
:1056D00007460D4688692AB9002814BF4FF0FF32EB
:1056E00001228A602A68D20603D41A68111D196043
:1056F00016684FF00009DFF8908000B3012837D01A
:10570000022825D123681A7812F8082012071FD41E
:105710002A6809F10109D10603D41B7806F8013B78
:1057200023686168AA6801390133013AC4E900318C
:10573000AA606AB1002904DDA8690028DED12368C7
:10574000E6E721463846D5F8803198470028F3D05F
:105750002B6813F0100305D1EA680132EA60AA69E8
:1057600002B133702B6900204B442B61BDE8F883F4
:1057700023686A691978525C002AC9D1B9F1000F0F
:10578000E6D1BDE8F88300BF21C500082DE9F04F40
:105790000C4687B0754F03AD8046164697E8070064
:1057A000DFF8CCE185E80700DFF8C8C1A269019302
:1057B000032A18BFE646A368CDF800E05A1EB2F5EA
:1057C000AE7F40F299806FF4AE7003EB000A40F2B6
:1057D0005D13A360A14659F81C2BAB4600274D462C
:1057E00042F4506222603368022219785BF8040B9D
:1057F000FEF768FCA0B1012F77D0022F00F09E8049
:10580000A3685A1EA2605BB133685A1C32601B78D1
:1058100005F8013B7368013B002B736040F3848003
:105820000137032FDFD16168002968D0C1F1100171
:10583000514B6069194400F0CFF8A368002B00F0C9
:105840009280002706E0336801333360A368013B90
:10585000A360CBB1306862690178525CA2B1302993
:10586000226856D022F410622260037805F8013BCA
:105870007368013B002B7360E5DC31464046D4F889
:10588000803198470028E1D02268D1050CD54D45DC
:1058900007D915F8011C32464046D4F87C31013D49
:1058A00098474D455DD0226812F0100213D12A703E
:1058B000494663684046009EB047236801999A06AE
:1058C00001D4DB0747D40B681A1D0A601B681860F7
:1058D000E3680133E36000202369A5EB09052F4449
:1058E0001F44276107B0BDE8F08F63685BB1236890
:1058F00023F4A063236083E74FF0000A6AE70A23DA
:105900000621636094E708236360236843F400730F
:10591000EEE71105A6D50137BAF1000FA8D0013383
:10592000A3600AF1FF3AA3E731464046D4F880313C
:10593000984700283FF474AF0027A5E7236803F4D5
:10594000C062B2F5007F7FF46EAF43F480732360D2
:105950001023636054E70B681A1D0A601B681880E7
:10596000B6E70120BEE71F468EE700BF58C8000813
:10597000E92600081D5C0008BCCE000838B50C46BE
:10598000114600228446074D20462A601A46644686
:1059900005F0BEFD431C00D038BD2B68002BFBD0AA
:1059A000236038BD0402002000200149704700BF79
:1059B0000000F87F002238B5064D044608462A60EC
:1059C00005F072FD431C00D038BD2B68002BFBD0C6
:1059D000236038BD04020020F0B50D7804465E2D2A
:1059E00021D00022964601F1010C631E04F1FF0153
:1059F00003F8012F8B42FBD195B1E6438EF00102F3
:105A000062550CF1010E1EF8013C70462D2B10D092
:105A10005D2B04D013B11D46F446F1E76046F0BD9E
:105A20000CF1FF30F0BD01224D78964601F1020CD9
:105A3000DBE79CF801005D28EDD08542EBDC6F1CB4
:105A40000CF1020CE31903F8012BF1188842FADC7F
:105A5000431B013B8542A8BF00230EF1020EDD1956
:105A6000D1E700BFA2B330B540EA0104A4078646DF
:105A70000B462AD004780B78A3422FD1012A0CD0F0
:105A8000844654B11CF8014F11F8013F9C4225D1C6
:105A90006FEA0C031344C318F3D1002030BD19463C
:105AA000DEF800407046A4F1013323EA040C0B46F3
:105AB00053F8045B0EF1040EAC420BD1043AECD067
:105AC0001CF0803FE9D170461946032AE7D8D1E798
:105AD0001046704704780B789C42D1D0E01A30BD54
